S01900004C45442073657175656E63652056332E302E73726563B6
S11300000C942A000C94E9060C94FF060C94470007
S11300100C9447000C9447000C9447000C94470040
S11300200C9447000C9447000C9447000C94D200A5
S11300300C9447000C9447000C9447000C94470020
S11300400C9447000C9447000C9447000C94470010
S11300500C94470011241FBECFE5D8E0DEBFCDBF0E
S113006010E0A0E6B0E0E4E1F2E102C005900D92F8
S1130070A236B107D9F720E0A2E6B0E001C01D9294
S1130080A536B207E1F70E94FB000C9408090C9412
S1130090000010926300109262006CE280E00E9403
S11300A08B0888E090E00E94B608809162009091ED
S11300B06300C197D0F30895109263001092620018
S11300C06CE880E00E948B0888E090E00E94B6080B
S11300D08091620090916300883B9140C8F3089539
S11300E010926300109262006BEC80E00E948B0817
S11300F080E490E00E94B6088091620090916300D1
S11301000D97D0F3089510926300109262006BEC87
S113011080E00E948B0880E091E00E94B608809104
S11301206200909163000D97D0F3089510926300DC
S11301301092620064E880E00E948B0888E090E0FE
S11301400E94B60880916200909163008339910502
S1130150C8F30895109263001092620064E380E093
S11301600E948B0888E090E00E94B60880916200AB
S11301709091630086359140C8F30895109263000E
S1130180109262006CED80E00E948B0888E090E0A1
S11301900E94B6088091620090916300853F9105AA
S11301A0C8F308951F920F920FB60F9211248F93E4
S11301B09F938091620090916300019690936300F5
S11301C0809362009F918F910F900FBE0F901F90AC
S11301D0189541E00E941607811181E0089541E0DD
S11301E00E949107811181E0089540E00E949107E7
S11301F0811181E0089560E081E40E94E90061E0FA
S113020081E40E94E90062E081E40E94E90063E085
S113021081E40E94E90066E080E00E940C0866E048
S113022081E00E940C0880916000833009F45CC274
S113023030F4813059F0823009F42FC1F4CF843086
S113024009F479C3853009F49DC4EDCF809164002D
S1130250811111C060E081E40E94F50061E081E455
S11302600E94F50062E081E40E94F50063E081E40D
S11302700E94F500D8CF813029F560E081E40E9426
S1130280EF0061E081E40E94F50062E081E40E94F5
S1130290F50063E081E40E94F5000E94490060E0FB
S11302A081E40E94F50061E081E40E94F50062E0CF
S11302B081E40E94F50063E081E40E94F5000E945D
S11302C05C00B1CF823029F560E081E40E94EF0048
S11302D061E081E40E94EF0062E081E40E94F500A5
S11302E063E081E40E94F5000E94490060E081E43B
S11302F00E94F50061E081E40E94F50062E081E47F
S11303000E94F50063E081E40E94F5000E945C0015
S11303108ACF833029F560E081E40E94EF0061E038
S113032081E40E94EF0062E081E40E94EF0063E058
S113033081E40E94F5000E94490060E081E40E948B
S1130340F50061E081E40E94F50062E081E40E942E
S1130350F50063E081E40E94F5000E945C0063CF35
S1130360843029F560E081E40E94EF0061E081E4DB
S11303700E94EF0062E081E40E94EF0063E081E408
S11303800E94EF000E94490060E081E40E94F500B1
S113039061E081E40E94F50062E081E40E94F500DE
S11303A063E081E40E94F5000E945C003CCF85304C
S11303B029F560E081E40E94F50061E081E40E9497
S11303C0EF0062E081E40E94EF0063E081E40E94B8
S11303D0EF000E94490060E081E40E94F50061E0C2
S11303E081E40E94F50062E081E40E94F50063E08C
S11303F081E40E94F5000E945C0015CF863029F547
S113040060E081E40E94F50061E081E40E94F5006F
S113041062E081E40E94EF0063E081E40E94EF0067
S11304200E94490060E081E40E94F50061E081E4FB
S11304300E94F50062E081E40E94F50063E081E43B
S11304400E94F5000E945C00EECE873009F0EBCEEE
S113045060E081E40E94F50061E081E40E94F5001F
S113046062E081E40E94F50063E081E40E94EF0011
S11304700E94490060E081E40E94F50061E081E4AB
S11304800E94F50062E081E40E94F50063E081E4EB
S11304900E94F5000E945C00C6CE80916400811128
S11304A011C060E081E40E94F50061E081E40E94F3
S11304B0F50062E081E40E94F50063E081E40E94BB
S11304C0F500B1CE813029F560E081E40E94EF00AF
S11304D061E081E40E94F50062E081E40E94F5009D
S11304E063E081E40E94F5000E94700060E081E412
S11304F00E94F50061E081E40E94F50062E081E47D
S11305000E94F50063E081E40E94F5000E948300EC
S11305108ACE823029F560E081E40E94EF0061E038
S113052081E40E94EF0062E081E40E94F50063E050
S113053081E40E94F5000E94700060E081E40E9462
S1130540F50061E081E40E94F50062E081E40E942C
S1130550F50063E081E40E94F5000E94830063CE0D
S1130560833029F560E081E40E94EF0061E081E4DA
S11305700E94EF0062E081E40E94EF0063E081E406
S11305800E94F5000E94700060E081E40E94F50082
S113059061E081E40E94F50062E081E40E94F500DC
S11305A063E081E40E94F5000E9483003CCE843025
S11305B029F560E081E40E94EF0061E081E40E949B
S11305C0EF0062E081E40E94EF0063E081E40E94B6
S11305D0EF000E94700060E081E40E94F50061E099
S11305E081E40E94F50062E081E40E94F50063E08A
S11305F081E40E94F5000E94830015CE853029F520
S113060060E081E40E94F50061E081E40E94EF0073
S113061062E081E40E94EF0063E081E40E94EF0065
S11306200E94700060E081E40E94F50061E081E4D2
S11306300E94F50062E081E40E94F50063E081E439
S11306400E94F5000E948300EECD863029F560E01B
S113065081E40E94F50061E081E40E94F50062E01B
S113066081E40E94EF0063E081E40E94EF000E94B5
S1130670700060E081E40E94F50061E081E40E9482
S1130680F50062E081E40E94F50063E081E40E94E9
S1130690F5000E948300C7CD873009F0C4CD60E027
S11306A081E40E94F50061E081E40E94F50062E0CB
S11306B081E40E94F50063E081E40E94EF000E945F
S11306C0700060E081E40E94F50061E081E40E9432
S11306D0F50062E081E40E94F50063E081E40E9499
S11306E0F5000E9483009FCD80916400811111C0A8
S11306F060E081E40E94F50061E081E40E94F5007D
S113070062E081E40E94F50063E081E40E94F50068
S11307108ACD813029F560E081E40E94EF0061E038
S113072081E40E94F50062E081E40E94F50063E048
S113073081E40E94F5000E94960060E081E40E943A
S1130740F50061E081E40E94F50062E081E40E942A
S1130750F50063E081E40E94F5000E94AA0063CDE5
S1130760823029F560E081E40E94EF0061E081E4D9
S11307700E94EF0062E081E40E94F50063E081E4FE
S11307800E94F5000E94960060E081E40E94F5005A
S113079061E081E40E94F50062E081E40E94F500DA
S11307A063E081E40E94F5000E94AA003CCD8330FE
S11307B029F560E081E40E94EF0061E081E40E9499
S11307C0EF0062E081E40E94EF0063E081E40E94B4
S11307D0F5000E94960060E081E40E94F50061E06B
S11307E081E40E94F50062E081E40E94F50063E088
S11307F081E40E94F5000E94AA0015CD843029F5F9
S113080060E081E40E94EF0061E081E40E94EF0077
S113081062E081E40E94EF0063E081E40E94EF0063
S11308200E94960060E081E40E94F50061E081E4AA
S11308300E94F50062E081E40E94F50063E081E437
S11308400E94F5000E94AA00EECC853029F560E0F4
S113085081E40E94F50061E081E40E94EF0062E01F
S113086081E40E94EF0063E081E40E94EF000E94B3
S1130870960060E081E40E94F50061E081E40E945A
S1130880F50062E081E40E94F50063E081E40E94E7
S1130890F5000E94AA00C7CC863029F560E081E407
S11308A00E94F50061E081E40E94F50062E081E4C9
S11308B00E94EF0063E081E40E94EF000E94960032
S11308C060E081E40E94F50061E081E40E94F500AB
S11308D062E081E40E94F50063E081E40E94F50097
S11308E00E94AA00A0CC873009F09DCC60E081E48E
S11308F00E94F50061E081E40E94F50062E081E479
S11309000E94F50063E081E40E94EF000E949600DB
S113091060E081E40E94F50061E081E40E94F5005A
S113092062E081E40E94F50063E081E40E94F50046
S11309300E94AA0078CC80916400811111C060E00B
S113094081E40E94F50061E081E40E94F50062E028
S113095081E40E94F50063E081E40E94F50063CC29
S1130960813029F560E081E40E94EF0061E081E4D8
S11309700E94F50062E081E40E94F50063E081E4F6
S11309800E94F5000E94BE0060E081E40E94F50030
S113099061E081E40E94F50062E081E40E94F500D8
S11309A063E081E40E94F5000E94BE003CCC8230EA
S11309B029F560E081E40E94EF0061E081E40E9497
S11309C0EF0062E081E40E94F50063E081E40E94AC
S11309D0F5000E94BE0060E081E40E94F50061E041
S11309E081E40E94F50062E081E40E94F50063E086
S11309F081E40E94F5000E94BE0015CC833029F5E5
S1130A0060E081E40E94EF0061E081E40E94EF0075
S1130A1062E081E40E94EF0063E081E40E94F5005B
S1130A200E94BE0060E081E40E94F50061E081E480
S1130A300E94F50062E081E40E94F50063E081E435
S1130A400E94F5000E94BE00EECB843029F560E0E0
S1130A5081E40E94EF0061E081E40E94EF0062E023
S1130A6081E40E94EF0063E081E40E94EF000E94B1
S1130A70BE0060E081E40E94F50061E081E40E9430
S1130A80F50062E081E40E94F50063E081E40E94E5
S1130A90F5000E94BE00C7CB853029F560E081E4F3
S1130AA00E94F50061E081E40E94EF0062E081E4CD
S1130AB00E94EF0063E081E40E94EF000E94BE0008
S1130AC060E081E40E94F50061E081E40E94F500A9
S1130AD062E081E40E94F50063E081E40E94F50095
S1130AE00E94BE00A0CB863029F560E081E40E941C
S1130AF0F50061E081E40E94F50062E081E40E9477
S1130B00EF0063E081E40E94EF000E94BE0060E019
S1130B1081E40E94F50061E081E40E94F50062E056
S1130B2081E40E94F50063E081E40E94F5000E94E4
S1130B30BE0079CB873009F076CB60E081E40E9477
S1130B40F50061E081E40E94F50062E081E40E9426
S1130B50F50063E081E40E94EF000E94BE0060E0C3
S1130B6081E40E94F50061E081E40E94F50062E006
S1130B7081E40E94F50063E081E40E94F5000E9494
S1130B80BE0051CB80916400811111C060E081E40A
S1130B900E94F50061E081E40E94F50062E081E4D6
S1130BA00E94F50063E081E40E94F5003CCB8130B3
S1130BB029F560E081E40E94EF0061E081E40E9495
S1130BC0F50062E081E40E94F50063E081E40E94A4
S1130BD0F5000E94830060E081E40E94F50061E07A
S1130BE081E40E94F50062E081E40E94F50063E084
S1130BF081E40E94F5000E94700015CB823029F533
S1130C0060E081E40E94EF0061E081E40E94EF0073
S1130C1062E081E40E94F50063E081E40E94F50053
S1130C200E94830060E081E40E94F50061E081E4B9
S1130C300E94F50062E081E40E94F50063E081E433
S1130C400E94F5000E947000EECA833029F560E02E
S1130C5081E40E94EF0061E081E40E94EF0062E021
S1130C6081E40E94EF0063E081E40E94F5000E94A9
S1130C70830060E081E40E94F50061E081E40E9469
S1130C80F50062E081E40E94F50063E081E40E94E3
S1130C90F5000E947000C7CA843029F560E081E441
S1130CA00E94EF0061E081E40E94EF0062E081E4D1
S1130CB00E94EF0063E081E40E94EF000E94830041
S1130CC060E081E40E94F50061E081E40E94F500A7
S1130CD062E081E40E94F50063E081E40E94F50093
S1130CE00E947000A0CA853029F560E081E40E946A
S1130CF0F50061E081E40E94EF0062E081E40E947B
S1130D00EF0063E081E40E94EF000E94830060E052
S1130D1081E40E94F50061E081E40E94F50062E054
S1130D2081E40E94F50063E081E40E94F5000E94E2
S1130D30700079CA863029F560E081E40E94F500EC
S1130D4061E081E40E94F50062E081E40E94EF002A
S1130D5063E081E40E94EF000E94830060E081E48C
S1130D600E94F50061E081E40E94F50062E081E404
S1130D700E94F50063E081E40E94F5000E94700087
S1130D8052CA873009F04FCA60E081E40E94F5003E
S1130D9061E081E40E94F50062E081E40E94F500D4
S1130DA063E081E40E94EF000E94830060E081E43C
S1130DB00E94F50061E081E40E94F50062E081E4B4
S1130DC00E94F50063E081E40E94F5000E94700037
S1130DD02ACA1F920F920FB60F9211248F938091FB
S1130DE06400873020F48F5F8093640002C0109207
S1130DF064008F910F900FBE0F901F9018951F9253
S1130E000F920FB60F9211248F938091600085305A
S1130E1020F48F5F8093600003C081E080936000C2
S1130E208F910F900FBE0F901F901895823431F15F
S1130E3018F4813439F073C08334E1F1843409F453
S1130E4054C06DC041110CC02AB381E090E002C0CF
S1130E50880F991F6A95E2F7809582238ABB5FC049
S1130E60413009F05CC02AB381E090E002C0880FF1
S1130E70991F6A95E2F7822B8ABB51C041110CC0BD
S1130E8027B381E090E002C0880F991F6A95E2F7CA
S1130E908095822387BB43C0413009F040C027B30B
S1130EA081E090E002C0880F991F6A95E2F7822BD7
S1130EB087BB35C041110CC024B381E090E002C06F
S1130EC0880F991F6A95E2F78095822384BB27C017
S1130ED0413029F524B381E090E002C0880F991FC6
S1130EE06A95E2F7822B84BB1AC041110CC021B36E
S1130EF081E090E002C0880F991F6A95E2F780951F
S1130F00822381BB0CC0413051F421B381E090E0D5
S1130F1002C0880F991F6A95E2F7822B81BB80E09B
S1130F200895823431F118F4813439F073C0833474
S1130F30E1F1843409F454C06DC041110CC02BB3E9
S1130F4081E090E002C0880F991F6A95E2F78095CE
S1130F5082238BBB5FC0413009F05CC02BB381E0BE
S1130F6090E002C0880F991F6A95E2F7822B8BBB31
S1130F7051C041110CC028B381E090E002C0880F39
S1130F80991F6A95E2F78095822388BB43C041305C
S1130F9009F040C028B381E090E002C0880F991F97
S1130FA06A95E2F7822B88BB35C041110CC025B38A
S1130FB081E090E002C0880F991F6A95E2F780955E
S1130FC0822385BB27C0413029F525B381E090E019
S1130FD002C0880F991F6A95E2F7822B85BB1AC05D
S1130FE041110CC022B381E090E002C0880F991F28
S1130FF06A95E2F78095822382BB0CC0413051F49C
S113100022B381E090E002C0880F991F6A95E2F74D
S1131010822B82BB80E008959FB790689FBF8111A7
S113102030C0643089F018F4633031F025C0653085
S113103099F06630C9F020C085B78E7F85BF85B72B
S11310408D7F85BF80E019C085B7816085BF85B776
S11310508D7F85BF80E011C085B78E7F85BF85B742
S1131060826085BF80E009C085B7816085BF85B790
S1131070826085BF80E001C081E09BB790649BBF24
S11310800895813081F5643089F018F4633031F0CB
S113109025C0653099F06630C9F020C085B78B7FD4
S11310A085BF85B7877F85BF80E019C085B7846019
S11310B085BF85B7877F85BF80E011C085B78B7FEB
S11310C085BF85B7886085BF80E009C085B7846027
S11310D085BF85B7886085BF80E001C081E09BB78C
S11310E090689BBF08958230A1F4653019F0663092
S11310F031F00AC084B78F7B84BF80E006C084B718
S1131100806484BF80E001C081E09BB790629BBF94
S1131110089581E00895813069F028F0823089F0E3
S11311208330B1F01BC083B78F7B83BF83B7877FC6
S113113083BF14C083B7806483BF83B7877F83BFB3
S11311400DC083B78F7B83BF83B7886083BF06C01E
S113115083B7806483BF83B7886083BF62BF8FB760
S113116080688FBF89B7816089BF089588309105F1
S113117039F130F4009781F081309105B9F0089588
S1131180811521E0920781F1811524E09207B1F1E4
S113119080349105E1F51EC083B78E7F83BF83B78A
S11311A08D7F83BF83B78B7F83BF089583B78160AF
S11311B083BF83B78D7F83BF83B78B7F83BF08953E
S11311C083B78E7F83BF83B7826083BF83B78B7FF0
S11311D083BF089583B7816083BF83B7826083BF71
S11311E083B78B7F83BF089583B78E7F83BF83B715
S11311F08D7F83BF83B7846083BF089583B7816085
S113120083BF83B78D7F83BF83B7846083BF089513
S1071210F894FFCF7C
S10512140100D3
S9030000FC
