S01900004C45442073657175656E63652056332E302E73726563B6
S11300000C942A000C943B060C9451060C94470063
S11300100C9447000C9447000C9447000C94470040
S11300200C9447000C9447000C9447000C94FF0672
S11300300C9447000C9447000C9447000C94470020
S11300400C9447000C9447000C9447000C94470010
S11300500C94470011241FBECFE5D8E0DEBFCDBF0E
S113006010E0A0E6B0E0ECE7F2E102C005900D92EA
S1130070A236B107D9F720E0A2E6B0E001C01D9294
S1130080A536B207E1F70E9428070C943C090C94AA
S1130090000060E081E40E94160761E081E40E94B0
S11300A0160762E081E40E94160763E081E40E947F
S11300B0160766E080E00E943D0866E081E00E9449
S11300C03D0880E090E0089580916000833009F459
S11300D05CC230F4813059F0823009F42FC1C8C5B4
S11300E0843009F479C3853009F49DC4C1C5809175
S11300F06200811111C060E081E40E94220761E086
S113010081E40E94220762E081E40E94220763E006
S113011081E40E942207ACC5813029F560E081E4C6
S11301200E941C0761E081E40E94220762E081E4EE
S11301300E94220763E081E40E9422070E9468066D
S113014060E081E40E94220761E081E40E942207CA
S113015062E081E40E94220763E081E40E942207B6
S11301600E947D0685C5823029F560E081E40E9405
S11301701C0761E081E40E941C0762E081E40E94A4
S1130180220763E081E40E9422070E94680660E07F
S113019081E40E94220761E081E40E94220762E078
S11301A081E40E94220763E081E40E9422070E9406
S11301B07D065EC5833029F560E081E40E941C075A
S11301C061E081E40E941C0762E081E40E941C0754
S11301D063E081E40E9422070E94680660E081E4F3
S11301E00E94220761E081E40E94220762E081E428
S11301F00E94220763E081E40E9422070E947D0698
S113020037C5843029F560E081E40E941C0761E071
S113021081E40E941C0762E081E40E941C0763E001
S113022081E40E941C070E94680660E081E40E9449
S1130230220761E081E40E94220762E081E40E94D7
S1130240220763E081E40E9422070E947D0610C514
S1130250853029F560E081E40E94220761E081E4B1
S11302600E941C0762E081E40E941C0763E081E4B1
S11302700E941C070E94680660E081E40E94220735
S113028061E081E40E94220762E081E40E94220787
S113029063E081E40E9422070E947D06E9C486305F
S11302A029F560E081E40E94220761E081E40E9474
S11302B0220762E081E40E941C0763E081E40E945B
S11302C01C070E94680660E081E40E94220761E046
S11302D081E40E94220762E081E40E94220763E035
S11302E081E40E9422070E947D06C2C4873009F07F
S11302F0BFC460E081E40E94220761E081E40E94BF
S1130300220762E081E40E94220763E081E40E9404
S11303101C070E94680660E081E40E94220761E0F5
S113032081E40E94220762E081E40E94220763E0E4
S113033081E40E9422070E947D069AC48091620093
S1130340811111C060E081E40E94220761E081E430
S11303500E94220762E081E40E94220763E081E4B4
S11303600E94220785C4813029F560E081E40E945F
S11303701C0761E081E40E94220762E081E40E949C
S1130380220763E081E40E9422070E94930660E052
S113039081E40E94220761E081E40E94220762E076
S11303A081E40E94220763E081E40E9422070E9404
S11303B0A8065EC4823029F560E081E40E941C072F
S11303C061E081E40E941C0762E081E40E9422074C
S11303D063E081E40E9422070E94930660E081E4C6
S11303E00E94220761E081E40E94220762E081E426
S11303F00E94220763E081E40E9422070E94A8066B
S113040037C4833029F560E081E40E941C0761E071
S113041081E40E941C0762E081E40E941C0763E0FF
S113042081E40E9422070E94930660E081E40E9416
S1130430220761E081E40E94220762E081E40E94D5
S1130440220763E081E40E9422070E94A80610C4E8
S1130450843029F560E081E40E941C0761E081E4B6
S11304600E941C0762E081E40E941C0763E081E4AF
S11304700E941C070E94930660E081E40E94220708
S113048061E081E40E94220762E081E40E94220785
S113049063E081E40E9422070E94A806E9C3853034
S11304A029F560E081E40E94220761E081E40E9472
S11304B01C0762E081E40E941C0763E081E40E945F
S11304C01C070E94930660E081E40E94220761E019
S11304D081E40E94220762E081E40E94220763E033
S11304E081E40E9422070E94A806C2C3863029F52F
S11304F060E081E40E94220761E081E40E94220717
S113050062E081E40E941C0763E081E40E941C070E
S11305100E94930660E081E40E94220761E081E486
S11305200E94220762E081E40E94220763E081E4E2
S11305300E9422070E94A8069BC3873009F098C333
S113054060E081E40E94220761E081E40E942207C6
S113055062E081E40E94220763E081E40E941C07B8
S11305600E94930660E081E40E94220761E081E436
S11305700E94220762E081E40E94220763E081E492
S11305800E9422070E94A80673C380916200811111
S113059011C060E081E40E94220761E081E40E94CE
S11305A0220762E081E40E94220763E081E40E9462
S11305B022075EC3813029F560E081E40E941C07B4
S11305C061E081E40E94220762E081E40E94220744
S11305D063E081E40E9422070E94BD0660E081E49A
S11305E00E94220761E081E40E94220762E081E424
S11305F00E94220763E081E40E9422070E94D3063E
S113060037C3823029F560E081E40E941C0761E071
S113061081E40E941C0762E081E40E94220763E0F7
S113062081E40E9422070E94BD0660E081E40E94EA
S1130630220761E081E40E94220762E081E40E94D3
S1130640220763E081E40E9422070E94D30610C3BC
S1130650833029F560E081E40E941C0761E081E4B5
S11306600E941C0762E081E40E941C0763E081E4AD
S11306700E9422070E94BD0660E081E40E942207D6
S113068061E081E40E94220762E081E40E94220783
S113069063E081E40E9422070E94D306E9C2843009
S11306A029F560E081E40E941C0761E081E40E9476
S11306B01C0762E081E40E941C0763E081E40E945D
S11306C01C070E94BD0660E081E40E94220761E0ED
S11306D081E40E94220762E081E40E94220763E031
S11306E081E40E9422070E94D306C2C2853029F504
S11306F060E081E40E94220761E081E40E941C071B
S113070062E081E40E941C0763E081E40E941C070C
S11307100E94BD0660E081E40E94220761E081E45A
S11307200E94220762E081E40E94220763E081E4E0
S11307300E9422070E94D3069BC2863029F560E0FE
S113074081E40E94220761E081E40E94220762E0C2
S113075081E40E941C0763E081E40E941C070E945C
S1130760BD0660E081E40E94220761E081E40E940A
S1130770220762E081E40E94220763E081E40E9490
S113078022070E94D30674C2873009F071C260E068
S113079081E40E94220761E081E40E94220762E072
S11307A081E40E94220763E081E40E941C070E9406
S11307B0BD0660E081E40E94220761E081E40E94BA
S11307C0220762E081E40E94220763E081E40E9440
S11307D022070E94D3064CC280916200811111C08D
S11307E060E081E40E94220761E081E40E94220724
S11307F062E081E40E94220763E081E40E94220710
S113080037C2813029F560E081E40E941C0761E071
S113081081E40E94220762E081E40E94220763E0EF
S113082081E40E9422070E94E90660E081E40E94BC
S1130830220761E081E40E94220762E081E40E94D1
S1130840220763E081E40E9422070E94E90610C2A5
S1130850823029F560E081E40E941C0761E081E4B4
S11308600E941C0762E081E40E94220763E081E4A5
S11308700E9422070E94E90660E081E40E942207A8
S113088061E081E40E94220762E081E40E94220781
S113089063E081E40E9422070E94E906E9C18330F3
S11308A029F560E081E40E941C0761E081E40E9474
S11308B01C0762E081E40E941C0763E081E40E945B
S11308C022070E94E90660E081E40E94220761E0B9
S11308D081E40E94220762E081E40E94220763E02F
S11308E081E40E9422070E94E906C2C1843029F5EE
S11308F060E081E40E941C0761E081E40E941C071F
S113090062E081E40E941C0763E081E40E941C070A
S11309100E94E90660E081E40E94220761E081E42C
S11309200E94220762E081E40E94220763E081E4DE
S11309300E9422070E94E9069BC1853029F560E0E8
S113094081E40E94220761E081E40E941C0762E0C6
S113095081E40E941C0763E081E40E941C070E945A
S1130960E90660E081E40E94220761E081E40E94DC
S1130970220762E081E40E94220763E081E40E948E
S113098022070E94E90674C1863029F560E081E4FB
S11309900E94220761E081E40E94220762E081E470
S11309A00E941C0763E081E40E941C070E94E90680
S11309B060E081E40E94220761E081E40E94220752
S11309C062E081E40E94220763E081E40E9422073E
S11309D00E94E9064DC1873009F04AC160E081E414
S11309E00E94220761E081E40E94220762E081E420
S11309F00E94220763E081E40E941C070E94E9062A
S1130A0060E081E40E94220761E081E40E94220701
S1130A1062E081E40E94220763E081E40E942207ED
S1130A200E94E90625C180916200811111C060E035
S1130A3081E40E94220761E081E40E94220762E0CF
S1130A4081E40E94220763E081E40E94220710C12E
S1130A50813029F560E081E40E941C0761E081E4B3
S1130A600E94220762E081E40E94220763E081E49D
S1130A700E9422070E94A80660E081E40E942207E7
S1130A8061E081E40E94220762E081E40E9422077F
S1130A9063E081E40E9422070E949306E9C0823049
S1130AA029F560E081E40E941C0761E081E40E9472
S1130AB01C0762E081E40E94220763E081E40E9453
S1130AC022070E94A80660E081E40E94220761E0F8
S1130AD081E40E94220762E081E40E94220763E02D
S1130AE081E40E9422070E949306C2C0833029F544
S1130AF060E081E40E941C0761E081E40E941C071D
S1130B0062E081E40E941C0763E081E40E94220702
S1130B100E94A80660E081E40E94220761E081E46B
S1130B200E94220762E081E40E94220763E081E4DC
S1130B300E9422070E9493069BC0843029F560E03E
S1130B4081E40E941C0761E081E40E941C0762E0CA
S1130B5081E40E941C0763E081E40E941C070E9458
S1130B60A80660E081E40E94220761E081E40E941B
S1130B70220762E081E40E94220763E081E40E948C
S1130B8022070E94930674C0853029F560E081E451
S1130B900E94220761E081E40E941C0762E081E474
S1130BA00E941C0763E081E40E941C070E94A806BF
S1130BB060E081E40E94220761E081E40E94220750
S1130BC062E081E40E94220763E081E40E9422073C
S1130BD00E9493064DC0863029F560E081E40E94AE
S1130BE0220761E081E40E94220762E081E40E941E
S1130BF01C0763E081E40E941C070E94A80660E0D1
S1130C0081E40E94220761E081E40E94220762E0FD
S1130C1081E40E94220763E081E40E9422070E948B
S1130C20930626C0873021F560E081E40E94220704
S1130C3061E081E40E94220762E081E40E942207CD
S1130C4063E081E40E941C070E94A80660E081E43E
S1130C500E94220761E081E40E94220762E081E4AD
S1130C600E94220763E081E40E9422070E94930607
S1130C7080E090E008951F920F920FB60F92112416
S1130C808F9380916200873020F48F5F809362009D
S1130C9002C0109262008F910F900FBE0F901F90B0
S1130CA018951F920F920FB60F9211248F93809173
S1130CB06000853020F48F5F8093600003C081E082
S1130CC0809360008F910F900FBE0F901F90189526
S1130CD010926400109263006CE280E00E94B508F8
S1130CE088E090E00E94E60880916300909164009F
S1130CF0C197D0F380E090E00895109264001092C0
S1130D0063006CE880E00E94B50888E090E00E94EF
S1130D10E6088091630090916400883B9140C8F399
S1130D2080E090E0089510926400109263006BECF0
S1130D3080E00E94B50880E490E00E94E60880917B
S1130D406300909164000D97D0F380E090E00895E3
S1130D5010926400109263006BEC80E00E94B5086E
S1130D6080E091E00E94E608809163009091640025
S1130D700D97D0F380E090E00895109264001092F3
S1130D80630064E880E00E94B50888E090E00E9477
S1130D90E608809163009091640083399105C8F35B
S1130DA080E090E00895109264001092630064E380
S1130DB080E00E94B50888E090E00E94E6088091F7
S1130DC063009091640086359140C8F380E090E020
S1130DD0089510926400109263006CED80E00E940C
S1130DE0B50888E090E00E94E60880916300909145
S1130DF06400853F9105C8F380E090E008951F9258
S1130E000F920FB60F9211248F939F9380916300DA
S1130E1090916400019690936400809363009F9185
S1130E208F910F900FBE0F901F90189541E00E9474
S1130E302D07811181E0089541E00E94B5078111D9
S1130E4081E0089540E00E94B507811181E0089592
S1130E500E9449000E946400FDCF8134F1F44111E5
S1130E600DC02AB381E090E002C0880F991F6A95F3
S1130E70E2F7809582238ABB80E00895413009F02F
S1130E806AC02AB381E090E002C0880F991F6A9576
S1130E90E2F7822B8ABB80E008958234F1F4411199
S1130EA00DC027B381E090E002C0880F991F6A95B6
S1130EB0E2F78095822387BB80E00895413009F0F2
S1130EC04CC027B381E090E002C0880F991F6A9557
S1130ED0E2F7822B87BB80E008958334E9F4411163
S1130EE00DC024B381E090E002C0880F991F6A9579
S1130EF0E2F78095822384BB80E00895413079F540
S1130F0024B381E090E002C0880F991F6A95E2F74C
S1130F10822B84BB80E00895833419F541110DC000
S1130F2021B381E090E002C0880F991F6A95E2F72F
S1130F308095822381BB80E008954130A1F421B3E0
S1130F4081E090E002C0880F991F6A95E2F7822B36
S1130F5081BB80E0089581E0089581E0089581E0F7
S1130F60089581E0089581E008958134F1F44111F8
S1130F700DC02BB381E090E002C0880F991F6A95E1
S1130F80E2F7809582238BBB80E00895413009F01D
S1130F906AC02BB381E090E002C0880F991F6A9564
S1130FA0E2F7822B8BBB80E008958234F1F4411187
S1130FB00DC028B381E090E002C0880F991F6A95A4
S1130FC0E2F78095822388BB80E00895413009F0E0
S1130FD04CC028B381E090E002C0880F991F6A9545
S1130FE0E2F7822B88BB80E008958334E9F4411151
S1130FF00DC025B381E090E002C0880F991F6A9567
S1131000E2F78095822385BB80E00895413079F52D
S113101025B381E090E002C0880F991F6A95E2F73A
S1131020822B85BB80E00895843419F541110DC0ED
S113103022B381E090E002C0880F991F6A95E2F71D
S11310408095822382BB80E008954130A1F422B3CD
S113105081E090E002C0880F991F6A95E2F7822B25
S113106082BB80E0089581E0089581E0089581E0E5
S1131070089581E0089581E008959FB790689FBF27
S113108081112DC0633041F485B78E7F85BF85B74C
S11310908D7F85BF80E01FC0643041F485B78160D7
S11310A085BF85B78D7F85BF80E015C0653041F46D
S11310B085B78E7F85BF85B7826085BF80E00BC012
S11310C0663041F485B7816085BF85B7826085BF8E
S11310D080E001C081E09BB790649BBF089581309C
S11310E069F5633041F485B78B7F85BF85B7877F0A
S11310F085BF80E01FC0643041F485B7846085BF3C
S113110085B7877F85BF80E015C0653041F485B71A
S11311108B7F85BF85B7886085BF80E00BC0663054
S113112041F485B7846085BF85B7886085BF80E05A
S113113001C081E09BB790689BBF0895823099F409
S1131140653029F484B78F7B84BF80E008C06630A3
S113115029F484B7806484BF80E001C081E09BB738
S113116090629BBF089581E00895811108C083B700
S11311708F7B83BF83B7877F83BF80E01FC08130AD
S113118041F483B7806483BF83B7877F83BF80E0E4
S113119015C0823041F483B78F7B83BF83B78860E7
S11311A083BF80E00BC0833041F483B7806483BF86
S11311B083B7886083BF80E001C081E062BF9FB7CE
S11311C090689FBF99B7916099BF0895009759F4AB
S11311D083B78E7F83BF83B78D7F83BF83B78B7FB6
S11311E083BF80E008958130910559F483B781600D
S11311F083BF83B78D7F83BF83B78B7F83BF80E03B
S113120008958830910559F483B78E7F83BF83B7DF
S1131210826083BF83B78B7F83BF80E0089580346F
S1131220910559F483B7816083BF83B7826083BF1C
S113123083B78B7F83BF80E00895811521E09207F7
S113124059F483B78E7F83BF83B78D7F83BF83B702
S1131250846083BF80E008958115944059F483B776
S1131260816083BF83B78D7F83BF83B7846083BF6F
S10F127080E0089581E00895F894FFCF19
S105127C01006B
S9030000FC
